:100000000C9462000C94D7040C94B0040C948A00F5
:100010000C948A000C948A000C948A000C948A0038
:100020000C948A000C948A000C948A000C948A0028
:100030000C948A000C948A000C948A000C948A0018
:100040000C9466040C948A000C9434040C940E04F2
:100050000C948A000C948A000C948A000C948A00F8
:100060000C948A000C948A000000000023002600F3
:10007000290000000000240027002A0000000000E2
:10008000250028002B0004040404040404040202D4
:100090000202020203030303030301020408102007
:1000A0004080010204081020010204081020000012
:1000B0000008000201000003040700000000000027
:1000C0000000FE0411241FBECFEFD8E0DEBFCDBF7D
:1000D00011E0A0E0B1E0EEE5F6E102C005900D927E
:1000E000A432B107D9F722E0A4E2B1E001C01D9229
:1000F000AE3AB207E1F710E0C2E6D0E004C02197C3
:10010000FE010E94220BC136D107C9F70E94660585
:100110000C942D0B0C940000E0915101F0915201D0
:100120000190F081E02D682F81E591E009948A30FB
:1001300091050CF04CC06091AC027091AD0261155C
:10014000710509F444C09C012C5E3F4FF901EE0F8C
:10015000FF1FE251FE4F0190F081E02DAC01425EA5
:100160005F4FEF2B51F4FA01EE0FFF1FE251FE4FEC
:100170000190F081E02DEF2B51F1F901EE0FFF1FFF
:10018000E251FE4F11821082440F551FFA01E251D5
:10019000FE4F11821082FC01E257FD4F1082220FA8
:1001A000331F220F331FF901E251FE4F10821182DB
:1001B00012821382880F991FFC01E658FD4F1182AD
:1001C0001082615071097093AD026093AC02089582
:1001D000CF92DF92EF92FF920F931F93CF93DF9313
:1001E0006C017A018B01C0E0D0E0CE15DF0589F00B
:1001F000D8016D918D01D601ED91FC910190F081B6
:10020000E02DC6010995892B11F47E0102C02196CB
:10021000ECCFC701DF91CF911F910F91FF90EF902D
:10022000DF90CF900895FC01918D828D981761F039
:10023000828DDF01A80FB11D5D968C91928D9F5F1D
:100240009F73928F90E008958FEF9FEF0895FC01C8
:10025000918D828D981731F0828DE80FF11D858D7B
:1002600090E008958FEF9FEF0895FC01918D228D0E
:10027000892F90E0805C9F4F821B91098F73992793
:10028000089581E591E00E94350121E0892B09F470
:1002900020E0822F0895FC01848DDF01A80FB11D9D
:1002A000A35ABF4F2C91848D90E001968F739927AC
:1002B000848FA689B7892C93A089B1898C91806499
:1002C0008C93938D848D981306C00288F389E02D5A
:1002D00080818F7D80830895EF92FF920F931F930B
:1002E000CF93DF93EC0181E0888F9B8D8C8D9813E9
:1002F00005C0E889F989808185FD24C0F62E0B8D23
:1003000010E00F5F1F4F0F731127E02E8C8DE81246
:100310000CC00FB607FCFACFE889F989808185FF08
:10032000F5CFCE010E944B01F1CF8B8DFE01E80F7E
:10033000F11DE35AFF4FF0820B8FEA89FB89808120
:10034000806207C0EE89FF896083E889F98980812E
:100350008064808381E090E0DF91CF911F910F91C5
:10036000FF90EF900895CF93DF93EC01888D882361
:10037000C9F0EA89FB89808185FD05C0A889B98912
:100380008C9186FD0FC00FB607FCF5CF808185FFED
:10039000F2CFA889B9898C9185FFEDCFCE010E945B
:1003A0004B01E7CFDF91CF91089580E090E0892B5A
:1003B00029F00E94410181110C94000008958330BE
:1003C00081F028F4813099F08230A1F008958730CF
:1003D000A9F08830B9F08430D1F4809180008F7D0D
:1003E00003C0809180008F7780938000089584B54A
:1003F0008F7702C084B58F7D84BD08958091B00051
:100400008F7703C08091B0008F7D8093B0000895F6
:100410001F93CF93DF93282F30E0F901E255FF4F70
:100420008491F901E656FF4FD491F901EA57FF4F45
:10043000C491CC23C9F0162F81110E94DF01EC2F4B
:10044000F0E0EE0FFF1FE458FF4FA591B4918FB776
:10045000F894111105C09C91ED2FE095E92302C09D
:10046000EC91ED2BEC938FBFDF91CF911F9108950D
:10047000CF93DF9390E0FC01E656FF4F2491FC01FF
:10048000EA57FF4F8491882361F190E0880F991F0C
:10049000FC01EE58FF4FC591D491FC01E458FF4F89
:1004A000A591B491611109C09FB7F89488812095F6
:1004B00082238883EC912E230BC0623061F49FB7B6
:1004C000F8943881822F809583238883EC912E2B9A
:1004D0002C939FBF06C08FB7F894E8812E2B2883FA
:1004E0008FBFDF91CF9108951F93CF93DF93182F84
:1004F000EB0161E00E943802209711F460E004C033
:10050000CF3FD10539F461E0812FDF91CF911F9169
:100510000C940802E12FF0E0E255FF4FE491E33044
:10052000F9F048F4E130B9F0E230A1F584B5806229
:1005300084BDC8BD34C0E730E9F0E83019F1E430DB
:1005400049F580918000806280938000D0938B0079
:10055000C0938A0024C084B5806884BDC7BD1FC015
:1005600080918000806880938000D0938900C09340
:10057000880015C08091B00080688093B000C0935F
:10058000B3000DC08091B00080628093B000C09332
:10059000B40005C0C038D1050CF0B5CFAFCFDF91A6
:1005A000CF911F9108952FB7F89460913701709102
:1005B00038018091390190913A012FBF08958F92AF
:1005C0009F92AF92BF92CF92DF92EF92FF920E94E2
:1005D000D3026B017C0160932E0170932F018093F5
:1005E00030019093310160912A0170912B0180912B
:1005F0002C0190912D010E94D90920E030E44CE1BA
:1006000055E40E948E0A4B015C0180912601909175
:100610002701A0912801B0912901A7019601281B6B
:10062000390B4A0B5B0BCA01B9010E94D7099B0128
:10063000AC01C501B4010E942F096093470170937A
:1006400048018093490190934A01C0922601D092BB
:100650002701E0922801F092290110922A011092BC
:100660002B0110922C0110922D01FF90EF90DF9042
:10067000CF90BF90AF909F908F9008950895CF93A3
:10068000DF93E1EBF0E08491EDE9F0E0D491E9E86B
:10069000F0E0C491CC2301F181110E94DF01EC2F25
:1006A000F0E0EE0FFF1FE859FF4FA591B491EC91D8
:1006B000ED2391F08FEF9FEF90932501809324011C
:1006C00080912A0190912B01A0912C01B0912D01D4
:1006D0000196A11DB11D11C081E090E0909325010C
:1006E0008093240180912A0190912B01A0912C01EB
:1006F000B0912D010197A109B10980932A0190932E
:100700002B01A0932C01B0932D01DF91CF9108957F
:10071000009769F0FC0101900020E9F73197AF01E3
:10072000481B590BBC0181E591E00C94E80080E086
:1007300090E008958F929F92AF92BF920F931F9374
:10074000CF93DF93CDB7DEB7A1970FB6F894DEBF96
:100750000FBECDBF19A2423008F44AE08E010F5DF2
:100760001F4F842E912CA12CB12CA50194010E9425
:10077000000BE62FB901CA0101501109EA3014F447
:10078000E05D01C0E95CD801EC93232B242B252BE1
:1007900061F7C8010E948803A1960FB6F894DEBFE6
:1007A0000FBECDBFDF91CF911F910F91BF90AF9042
:1007B0009F908F900895CF92DF92EF92FF92CF9308
:1007C000DF936C01990FEE08FF08F7FE12C08DE26F
:1007D0000E948C00EC0166277727CB016C197D09FC
:1007E0008E099F094AE00E949A037C01EC0EFD1ECF
:1007F00006C04AE0C701B6010E949A037C0184E169
:1008000091E00E9488038E0D9F1DDF91CF91FF9094
:10081000EF90DF90CF9008950E94280B1F920F92C7
:100820000FB60F9211242F933F934F935F936F93C3
:100830007F938F939F93AF93BF93EF93FF9381E544
:1008400091E00E944B01FF91EF91BF91AF919F9179
:100850008F917F916F915F914F913F912F910F9069
:100860000FBE0F901F9018951F920F920FB60F9208
:1008700011242F938F939F93EF93FF93E091610146
:10088000F09162018081E0916701F091680182FD41
:1008900012C0908180916A018F5F8F7320916B01EC
:1008A000821751F0E0916A01F0E0EF5AFE4F958F08
:1008B00080936A0101C08081FF91EF919F918F9198
:1008C0002F910F900FBE0F901F9018951F920F92AF
:1008D0000FB60F9211242F933F938F939F93AF9353
:1008E000BF938091370190913801A0913901B09167
:1008F0003A013091360123E0230F2D3720F4019681
:10090000A11DB11D05C026E8230F0296A11DB11D32
:10091000209336018093370190933801A0933901D9
:10092000B0933A018091320190913301A09134014A
:10093000B09135010196A11DB11D809332019093B4
:100940003301A0933401B0933501BF91AF919F91D2
:100950008F913F912F910F900FBE0F901F90189580
:100960001F920F920FB60F9211242F933F934F9324
:100970005F936F937F938F939F93AF93BF93EF9307
:10098000FF93E0910201F09103010995FF91EF912E
:10099000BF91AF919F918F917F916F915F914F9197
:1009A0003F912F910F900FBE0F901F9018951F929F
:1009B0000F920FB60F9211242F933F934F935F9393
:1009C0006F937F938F939F93AF93BF93EF93FF9317
:1009D000E0910001F09101010995FF91EF91BF9124
:1009E000AF919F918F917F916F915F914F913F91C7
:1009F0002F910F900FBE0F901F901895CF93DF93FC
:100A0000109254011092530188EE93E0A0E0B0E000
:100A10008093550190935601A0935701B0935801CC
:100A200088E091E0909352018093510185EC90E031
:100A300090935E0180935D0184EC90E0909360015F
:100A400080935F0180EC90E090936201809361015C
:100A500081EC90E0909364018093630182EC90E0DC
:100A6000909366018093650186EC90E09093680115
:100A70008093670110926A0110926B0110926C01D1
:100A800010926D010E94D302CEE8D2E0E6E1F2E0DE
:100A90004EEE51E0199211921192138A128ADA01E4
:100AA0006D937D938D939D93AD019F012E593F4F83
:100AB000D9011D921C92B2E0EA32FB0759F710925D
:100AC000AD021092AC02DF91CF910895CF93DF93E6
:100AD00000D000D0CDB7DEB7789484B5826084BDF5
:100AE00084B5816084BD85B5826085BD85B5816032
:100AF00085BD80916E00816080936E0010928100B0
:100B0000809181008260809381008091810081606A
:100B1000809381008091800081608093800080912B
:100B2000B10084608093B1008091B00081608093B7
:100B3000B00080917A00846080937A0080917A007E
:100B4000826080937A0080917A00816080937A003D
:100B500080917A00806880937A001092C100E091C1
:100B60006101F091620182E08083E0915D01F0918A
:100B70005E011082E0915F01F09160018FEC808353
:100B800010926901E0916501F091660186E0808331
:100B9000E0916301F0916401808180618083E09144
:100BA0006301F0916401808188608083E09163013A
:100BB000F0916401808180688083E0916301F0910D
:100BC000640180818F7D808361E087E00E9438022C
:100BD00061E088E00E94380262E082E00E94380210
:100BE00060E083E00E9438028FE393E0909301017C
:100BF0008093000180916900836080936900E89A86
:100C00008091AC029091AD020A970CF04EC0E6E1E3
:100C1000F2E000E010E081919191892B21F482892A
:100C20009389892B31F00F5F1F4F0A30110599F717
:100C30003CC0C8014496FC01EE0FFF1FEE0FFF1FE2
:100C4000E251FE4F41E450E060E070E040835183A8
:100C500062837383880F991FFC01E251FE4F8FED71
:100C600092E091838083F801EE0FFF1FEA59FD4F58
:100C700011821082F801E257FD4F81E080830E94CB
:100C8000D302000F111F000F111FF801E251FE4F98
:100C900060837183828393838091AC029091AD02D3
:100CA00001969093AD028093AC0222242394312CC0
:100CB0000E94D3026B017C0146E152E05C834B83CE
:100CC000EAE7F2E08EEE91E09A8389838A0120E0E0
:100CD00030E0178E168ED8018D919D918D01892B54
:100CE00039F452968D919C915397892B09F453C0F6
:100CF000A981BA814D915D916D917C911397CD0140
:100D0000805B9F4FDC018D909D90AD90BC90260143
:100D10003701441A550A660A770A481459046A04C6
:100D20007B04C8F1480D591D6A1D7B1DA981BA813C
:100D30004D935D936D937C931397C90182579D4F9B
:100D4000DC018C91882339F1CF014497DC014D916E
:100D50005C914115510519F4378E268E1CC0808197
:100D60009181841795076CF4378E268E01969183B6
:100D70008083841795077CF042E050E0578F468FC0
:100D80000AC04F3F5F4F39F4A3E0B0E0B78FA68FA2
:100D90000196918380832F5F3F4F329649815A811C
:100DA0004C5F5F4F5A8349832A30310509F091CF58
:100DB0003EE3E32E32E0F32E00E010E0EB81FC8115
:100DC000EE57FF4F808191818230910559F0833039
:100DD000910571F0019719F5AB81BC81ED91FC9102
:100DE00009951DC0AB81BC81ED91FC91099514C0A2
:100DF000AB81BC815496ED91FC915597AC59BF4F96
:100E00008D919C910995F70160837183828393830F
:100E1000672B682B692B19F4C8010E9497000F5F9C
:100E20001F4F4B815C814E5F5F4F5C834B8354E06F
:100E3000E50EF11C0A30110509F680E480937C0070
:100E400080917A00806480937A0080917A0086FD98
:100E5000FCCF9091780080917900292F30E0382BD9
:100E6000211562E036071CF48FEF9FEF02C081E08E
:100E700090E090934E0180934D01A90155954795BF
:100E800021E030E0019711F020E030E0421B530BED
:100E90008A010F5F11091093500100934F01B801AF
:100EA000012E000C880B990B0E94D9096B017C0163
:100EB0002AE43BE74BE050E4609147017091480120
:100EC0008091490190914A010E948E0A9B01AC01D8
:100ED000C701B6010E94BD086093430170934401AD
:100EE0008093450190934601C0903F01D09040010E
:100EF000E0904101F090420120E434EA4FE15EE3EA
:100F00000E948E0A20E030E0A9010E94BE084B0139
:100F10005C012EEE3CE74FEF5FE3C701B6010E9494
:100F20008E0A9B01AC01C501B4010E94BE084B01B1
:100F30005C0127EF36E04FE75FE360913B01709182
:100F40003C0180913D0190913E010E948E0A9B01DF
:100F5000AC01C501B4010E94BD080E94A1094B016A
:100F60005C01C0923B01D0923C01E0923D01F092C5
:100F70003E01072E000C880B990B0E94D909609343
:100F80003F01709340018093410190934201C4015D
:100F90008F3F910519F014F08FEF90E08130AFEFA3
:100FA0009A0714F481E09FEF90934C0180934B01DA
:100FB000C8010E94DB032AE43BE74BE050E4609168
:100FC0004701709148018091490190914A010E9426
:100FD0008E0A6B017C014B015C019B01AC010E94FC
:100FE000FB0A882319F087E191E01AC02601370136
:100FF000E89477F82FEF3FEF4FE75FE7C301B201C7
:101000000E94FB0A81110FC02FEF3FEF4FE75FE710
:10101000C301B2010E942A0918162CF48BE191E059
:101020000E94880374C02FEF3FEF4FE75FE4C701D2
:10103000B6010E94890A18161CF48FE191E0F0CFE6
:101040002FEF3FEF4FE75FECC701B6010E942A097F
:1010500087FDF3CF20E030E0A901C701B6010E946F
:101060002A0987FF09C08DE20E948C0046015701C2
:10107000B7FAB094B7F8B0942AE037ED43EA5BE3EF
:10108000C501B4010E94BE084B015C010E94A80981
:101090006B017C010E94D7099B01AC01C501B40121
:1010A0000E94BD084B015C014AE0C701B6010E94E5
:1010B0009A038EE20E948C0020E030E040E251E48E
:1010C000C501B4010E948E0A4B015C010E94A8096F
:1010D0006B01E12CF12C4AE0C701B6010E949A0392
:1010E000C701B6010E94D7099B01AC01C501B4013B
:1010F0000E94BD0820E030E040E251E40E948E0AE8
:101100000E94A80980E090E04AE00E949A0384E1EE
:1011100091E00E94880380914B0190914C010E94C4
:10112000DB0385E191E00E94880384E191E00E9465
:10113000880360914B0170914C0180914D01909119
:101140004E01019749F489E00E94740261E087E052
:101150000E94080260E00BC071956195710989E0F9
:101160000E94740260E087E00E94080261E088E06B
:101170000E9408020E94D5019BCD5058BB27AA2788
:101180000E94D5080C944F0A0E94410A38F00E9430
:10119000480A20F039F49F3F19F426F40C943E0AD3
:1011A0000EF4E095E7FB0C94380AE92F0E94600AE0
:1011B00058F3BA17620773078407950720F079F48C
:1011C000A6F50C94820A0EF4E0950B2EBA2FA02DF2
:1011D0000B01B90190010C01CA01A0011124FF27E4
:1011E000591B99F0593F50F4503E68F11A16F040DF
:1011F000A22F232F342F4427585FF3CF46953795DE
:101200002795A795F0405395C9F77EF41F16BA0BA2
:10121000620B730B840BBAF09150A1F0FF0FBB1F50
:10122000661F771F881FC2F70EC0BA0F621F731F99
:10123000841F48F4879577956795B795F7959E3FF6
:1012400008F0B0CF9395880F08F09927EE0F979587
:10125000879508950E94140A08F481E008950E9479
:1012600043090C944F0A0E94480A58F00E94410A10
:1012700040F029F45F3F29F00C94380A51110C9486
:10128000830A0C943E0A0E94600A68F39923B1F322
:10129000552391F3951B550BBB27AA27621773079C
:1012A000840738F09F5F5F4F220F331F441FAA1F30
:1012B000A9F335D00E2E3AF0E0E832D091505040EC
:1012C000E695001CCAF72BD0FE2F29D0660F771F9A
:1012D000881FBB1F261737074807AB07B0E809F080
:1012E000BB0B802DBF01FF2793585F4F3AF09E3F05
:1012F000510578F00C94380A0C94830A5F3FE4F3AC
:10130000983ED4F3869577956795B795F7959F5F47
:10131000C9F7880F911D9695879597F90895E1E093
:10132000660F771F881FBB1F621773078407BA07F2
:1013300020F0621B730B840BBA0BEE1F88F7E0954D
:1013400008950E94A8096894B1110C94830A089525
:101350000E94680A88F09F5798F0B92F9927B751D3
:10136000B0F0E1F0660F771F881F991F1AF0BA9549
:10137000C9F714C0B13091F00E94820AB1E008951B
:101380000C94820A672F782F8827B85F39F0B93F0D
:10139000CCF3869577956795B395D9F73EF49095FC
:1013A0008095709561957F4F8F4F9F4F0895E8947A
:1013B00009C097FB3EF490958095709561957F4F9D
:1013C0008F4F9F4F9923A9F0F92F96E9BB2793954B
:1013D000F695879577956795B795F111F8CFFAF45B
:1013E000BB0F11F460FF1BC06F5F7F4F8F4F9F4F8C
:1013F00016C0882311F096E911C0772321F09EE8EA
:10140000872F762F05C0662371F096E8862F70E04F
:1014100060E02AF09A95660F771F881FDAF7880F29
:101420009695879597F90895990F0008550FAA0B7F
:10143000E0E8FEEF16161706E807F907C0F01216E7
:101440001306E407F50798F0621B730B840B950BEA
:1014500039F40A2661F0232B242B252B21F408953F
:101460000A2609F4A140A6958FEF811D811D0895DC
:1014700097F99F6780E870E060E008959FEF80EC47
:10148000089500240A9416161706180609060895EA
:1014900000240A9412161306140605060895092E50
:1014A0000394000C11F4882352F0BB0F40F4BF2BBF
:1014B00011F460FF04C06F5F7F4F8F4F9F4F0895FF
:1014C00057FD9058440F551F59F05F3F71F04795F5
:1014D000880F97FB991F61F09F3F79F087950895DA
:1014E000121613061406551FF2CF4695F1DF08C0F9
:1014F000161617061806991FF1CF86957105610516
:1015000008940895E894BB2766277727CB0197F9BD
:1015100008950E94140A08F48FEF08950E94A10A0A
:101520000C944F0A0E94410A38F00E94480A20F0A9
:10153000952311F00C94380A0C943E0A11240C9453
:10154000830A0E94600A70F3959FC1F3950F50E0E3
:10155000551F629FF001729FBB27F00DB11D639F65
:10156000AA27F00DB11DAA1F649F6627B00DA11D0B
:10157000661F829F2227B00DA11D621F739FB00DB1
:10158000A11D621F839FA00D611D221F749F332721
:10159000A00D611D231F849F600D211D822F762FBA
:1015A0006A2F11249F5750409AF0F1F088234AF097
:1015B000EE0FFF1FBB1F661F771F881F9150504003
:1015C000A9F79E3F510580F00C94380A0C94830AC9
:1015D0005F3FE4F3983ED4F3869577956795B7958A
:1015E000F795E7959F5FC1F7FE2B880F911D9695A4
:1015F000879597F908950E94140A880B990B08950E
:10160000A1E21A2EAA1BBB1BFD010DC0AA1FBB1F06
:10161000EE1FFF1FA217B307E407F50720F0A21B78
:10162000B30BE40BF50B661F771F881F991F1A94E5
:1016300069F760957095809590959B01AC01BD010F
:10164000CF010895EE0FFF1F0590F491E02D09944E
:0E16500081E090E0F8940C942D0BF894FFCFFD
:10165E003E033E03000000006C01E800350113015B
:10166E002701B3010D0A006E616E00696E66006F90
:04167E00766600008C
:107E0000112484B714BE81FFF0D085E080938100F7
:107E100082E08093C00088E18093C10086E0809377
:107E2000C20080E18093C4008EE0C9D0259A86E02C
:107E300020E33CEF91E0309385002093840096BBD3
:107E4000B09BFECF1D9AA8958150A9F7CC24DD24C4
:107E500088248394B5E0AB2EA1E19A2EF3E0BF2EE7
:107E6000A2D0813461F49FD0082FAFD0023811F036
:107E7000013811F484E001C083E08DD089C08234E0
:107E800011F484E103C0853419F485E0A6D080C0E4
:107E9000853579F488D0E82EFF2485D0082F10E0AE
:107EA000102F00270E291F29000F111F8ED06801E7
:107EB0006FC0863521F484E090D080E0DECF843638
:107EC00009F040C070D06FD0082F6DD080E0C81688
:107ED00080E7D80618F4F601B7BEE895C0E0D1E017
:107EE00062D089930C17E1F7F0E0CF16F0E7DF06D8
:107EF00018F0F601B7BEE89568D007B600FCFDCFD4
:107F0000A601A0E0B1E02C9130E011968C91119780
:107F100090E0982F8827822B932B1296FA010C0160
:107F200087BEE89511244E5F5F4FF1E0A038BF0790
:107F300051F7F601A7BEE89507B600FCFDCF97BE46
:107F4000E89526C08437B1F42ED02DD0F82E2BD052
:107F50003CD0F601EF2C8F010F5F1F4F84911BD097
:107F6000EA94F801C1F70894C11CD11CFA94CF0C13
:107F7000D11C0EC0853739F428D08EE10CD085E9AC
:107F80000AD08FE07ACF813511F488E018D01DD067
:107F900080E101D065CF982F8091C00085FFFCCF94
:107FA0009093C60008958091C00087FFFCCF809118
:107FB000C00084FD01C0A8958091C6000895E0E648
:107FC000F0E098E1908380830895EDDF803219F02E
:107FD00088E0F5DFFFCF84E1DECF1F93182FE3DFCA
:107FE0001150E9F7F2DF1F91089580E0E8DFEE27F6
:047FF000FF270994CA
:027FFE00040479
:0400000300007E007B
:00000001FF
