:100000000C9462000C949A040C9473040C948A006F
:100010000C948A000C948A000C948A000C948A0038
:100020000C948A000C948A000C948A000C948A0028
:100030000C948A000C948A000C948A000C948A0018
:100040000C9429040C948A000C94F7030C94D103AB
:100050000C948A000C948A000C948A000C948A00F8
:100060000C948A000C948A000000000023002600F3
:10007000290000000000240027002A0000000000E2
:10008000250028002B0004040404040404040202D4
:100090000202020203030303030301020408102007
:1000A0004080010204081020010204081020000012
:1000B0000008000201000003040700000000000027
:1000C0000000C10411241FBECFEFD8E0DEBFCDBFBA
:1000D00011E0A0E0B1E0E2EBF3E102C005900D9287
:1000E000A432B107D9F722E0A4E2B1E001C01D9229
:1000F000AE3AB207E1F710E0C2E6D0E004C02197C3
:10010000FE010E94CC09C136D107C9F70E94320511
:100110000C94D7090C940000E0914D01F0914E0130
:100120000190F081E02D682F8DE491E00994CF9249
:10013000DF92EF92FF920F931F93CF93DF936C01A7
:100140007A018B01C0E0D0E0CE15DF0589F0D8013F
:100150006D918D01D601ED91FC910190F081E02D22
:10016000C6010995892B11F47E0102C02196ECCFBE
:10017000C701DF91CF911F910F91FF90EF90DF901A
:10018000CF900895FC01918D828D981761F0828D3A
:10019000DF01A80FB11D5D968C91928D9F5F9F73BB
:1001A000928F90E008958FEF9FEF0895FC01918D5D
:1001B000828D981731F0828DE80FF11D858D90E0CA
:1001C00008958FEF9FEF0895FC01918D228D892F67
:1001D00090E0805C9F4F821B91098F73992708954F
:1001E0008DE491E00E94E40021E0892B09F420E0F5
:1001F000822F0895FC01848DDF01A80FB11DA35A41
:10020000BF4F2C91848D90E001968F739927848F36
:10021000A689B7892C93A089B1898C9180648C932D
:10022000938D848D981306C00288F389E02D808118
:100230008F7D80830895EF92FF920F931F93CF934A
:10024000DF93EC0181E0888F9B8D8C8D981305C026
:10025000E889F989808185FD24C0F62E0B8D10E098
:100260000F5F1F4F0F731127E02E8C8DE8120CC00B
:100270000FB607FCFACFE889F989808185FFF5CFB1
:10028000CE010E94FA00F1CF8B8DFE01E80FF11D27
:10029000E35AFF4FF0820B8FEA89FB8980818062ED
:1002A00007C0EE89FF896083E889F98980818064CD
:1002B000808381E090E0DF91CF911F910F91FF90BB
:1002C000EF900895CF93DF93EC01888D8823C9F0D8
:1002D000EA89FB89808185FD05C0A889B9898C914F
:1002E00086FD0FC00FB607FCF5CF808185FFF2CFEA
:1002F000A889B9898C9185FFEDCFCE010E94FA00C3
:10030000E7CFDF91CF91089580E090E0892B29F02D
:100310000E94F00081110C9400000895833081F058
:1003200028F4813099F08230A1F008958730A9F047
:100330008830B9F08430D1F4809180008F7D03C083
:10034000809180008F7780938000089584B58F77A7
:1003500002C084B58F7D84BD08958091B0008F77F1
:1003600003C08091B0008F7D8093B00008951F93EB
:10037000CF93DF93282F30E0F901E255FF4F8491AE
:10038000F901E656FF4FD491F901EA57FF4FC491A6
:10039000CC23C9F0162F81110E948E01EC2FF0E0C2
:1003A000EE0FFF1FE458FF4FA591B4918FB7F8945B
:1003B000111105C09C91ED2FE095E92302C0EC914D
:1003C000ED2BEC938FBFDF91CF911F910895CF93C9
:1003D000DF9390E0FC01E656FF4F2491FC01EA57C1
:1003E000FF4F8491882361F190E0880F991FFC01F1
:1003F000EE58FF4FC591D491FC01E458FF4FA591F1
:10040000B491611109C09FB7F89488812095822327
:100410008883EC912E230BC0623061F49FB7F8946F
:100420003881822F809583238883EC912E2B2C9307
:100430009FBF06C08FB7F894E8812E2B28838FBF0B
:10044000DF91CF9108951F93CF93DF93182FEB0186
:1004500061E00E94E701209711F460E004C0CF3F03
:10046000D10539F461E0812FDF91CF911F910C9478
:10047000B701E12FF0E0E255FF4FE491E330F9F0EE
:1004800048F4E130B9F0E230A1F584B5806284BD72
:10049000C8BD34C0E730E9F0E83019F1E43049F57F
:1004A00080918000806280938000D0938B00C09305
:1004B0008A0024C084B5806884BDC7BD1FC08091F8
:1004C0008000806880938000D0938900C09388006A
:1004D00015C08091B00080688093B000C093B300D5
:1004E0000DC08091B00080628093B000C093B400D2
:1004F00005C0C038D1050CF0B5CFAFCFDF91CF919B
:100500001F91089508958F929F92AF92BF92CF92BC
:10051000DF92EF92FF92CF93DF93E1EBF0E08491D3
:10052000EDE9F0E0D491E9E8F0E0C491CC2301F1E9
:1005300081110E948E01EC2FF0E0EE0FFF1FE859B1
:10054000FF4FA591B491EC91ED2391F08FEF9FEFC8
:10055000909331018093300180912C0190912D0175
:10056000A0912E01B0912F010196A11DB11D11C0C6
:1005700081E090E0909331018093300180912C01D3
:1005800090912D01A0912E01B0912F010197A10909
:10059000B10980932C0190932D01A0932E01B0936B
:1005A0002F0180912C0190912D01A0912E01B091ED
:1005B0002F010297A105B10571F080912C01909156
:1005C0002D01A0912E01B0912F018E3F9F4FAF4F73
:1005D000BF4F09F055C010922C0110922D011092BE
:1005E0002E0110922F018FB7F894C090EA01D0909D
:1005F000EB01E090EC01F090ED018FBFC09228017B
:10060000D0922901E0922A01F0922B0160913001F1
:1006100070913101072E000C880B990B0E94830802
:1006200020E030EC49E955E40E9438094B015C01B7
:100630008091240190912501A0912601B09127017C
:10064000A7019601281B390B4A0B5B0BCA01B901A4
:100650000E9481089B01AC01C501B4010E94D90729
:100660006093430170934401809345019093460148
:10067000C0922401D0922501E0922601F092270138
:10068000DF91CF91FF90EF90DF90CF90BF90AF9030
:100690009F908F900895009769F0FC0101900020D1
:1006A000E9F73197AF01481B590BBC018DE491E08C
:1006B0000C94970080E090E008958F929F92AF9203
:1006C000BF920F931F93CF93DF93CDB7DEB7A19760
:1006D0000FB6F894DEBF0FBECDBF19A2423008F4AA
:1006E0004AE08E010F5D1F4F842E912CA12CB12C5E
:1006F000A50194010E94AA09E62FB901CA0101507F
:100700001109EA3014F4E05D01C0E95CD801EC9312
:10071000232B242B252B61F7C8010E944B03A196A4
:100720000FB6F894DEBF0FBECDBFDF91CF911F9102
:100730000F91BF90AF909F908F900895CF92DF92CE
:10074000EF92FF92CF93DF936C01990FEE08FF08B1
:10075000F7FE12C08DE20E948C00EC01662777271D
:10076000CB016C197D098E099F094AE00E945D0347
:100770007C01EC0EFD1E06C04AE0C701B6010E94D6
:100780005D037C0184E191E00E944B038E0D9F1D6F
:10079000DF91CF91FF90EF90DF90CF9008950E946E
:1007A000D2091F920F920FB60F9211242F933F93ED
:1007B0004F935F936F937F938F939F93AF93BF9369
:1007C000EF93FF938DE491E00E94FA00FF91EF9187
:1007D000BF91AF919F918F917F916F915F914F9159
:1007E0003F912F910F900FBE0F901F9018951F9261
:1007F0000F920FB60F9211242F938F939F93EF9325
:10080000FF93E0915D01F0915E018081E0916301D1
:10081000F091640182FD12C09081809166018F5F2A
:100820008F7320916701821751F0E0916601F0E02B
:10083000E35BFE4F958F8093660101C08081FF913D
:10084000EF919F918F912F910F900FBE0F901F905E
:1008500018951F920F920FB60F9211242F933F936A
:100860008F939F93AF93BF938091EA019091EB0197
:10087000A091EC01B091ED013091360123E0230FFE
:100880002D3720F40196A11DB11D05C026E8230FC8
:100890000296A11DB11D209336018093EA01909329
:1008A000EB01A093EC01B093ED01809132019091A6
:1008B0003301A0913401B09135010196A11DB11D04
:1008C0008093320190933301A0933401B0933501AA
:1008D000BF91AF919F918F913F912F910F900FBE3C
:1008E0000F901F9018951F920F920FB60F92112420
:1008F0002F933F934F935F936F937F938F939F9328
:10090000AF93BF93EF93FF93E0910201F091030146
:100910000995FF91EF91BF91AF919F918F917F9139
:100920006F915F914F913F912F910F900FBE0F905C
:100930001F9018951F920F920FB60F9211242F93AC
:100940003F934F935F936F937F938F939F93AF9357
:10095000BF93EF93FF93E0910001F091010109959E
:10096000FF91EF91BF91AF919F918F917F916F9187
:100970005F914F913F912F910F900FBE0F901F905D
:100980001895CF93DF931092500110924F0188EE8B
:1009900093E0A0E0B0E08093510190935201A093C6
:1009A0005301B093540188E091E090934E018093FD
:1009B0004D0185EC90E090935A018093590184ECAD
:1009C00090E090935C0180935B0180EC90E09093C9
:1009D0005E0180935D0181EC90E0909360018093D3
:1009E0005F0182EC90E0909362018093610186EC5C
:1009F00090E09093640180936301109266011092DD
:100A0000670110926801109269018FB7F8944091C4
:100A1000EA015091EB016091EC017091ED018FBF03
:100A2000CEE8D2E0E6E1F2E02EEE31E0199211924A
:100A30001192138A128AD9014D935D936D937D9320
:100A40009D01CF018E599F4FDC011D921C92B2E097
:100A5000EA32FB0759F71092AD021092AC02DF9117
:100A6000CF910895789484B5826084BD84B5816007
:100A700084BD85B5826085BD85B5816085BD809169
:100A80006E00816080936E001092810080918100E1
:100A900082608093810080918100816080938100D9
:100AA000809180008160809380008091B10084609B
:100AB0008093B1008091B00081608093B0008091FC
:100AC0007A00846080937A0080917A0082608093BB
:100AD0007A0080917A00816080937A0080917A0018
:100AE000806880937A001092C100E0915D01F091DE
:100AF0005E0182E08083E0915901F0915A011082F9
:100B0000E0915B01F0915C018FEC808310926501B4
:100B1000E0916101F091620186E08083E0915F01E4
:100B2000F0916001808180618083E0915F01F091AC
:100B30006001808188608083E0915F01F0916001B5
:100B4000808180688083E0915F01F0916001808105
:100B50008F7D808361E087E00E94E70161E088E0AB
:100B60000E94E70162E082E00E94E70160E083E02A
:100B70000E94E70183E892E09093010180930001D5
:100B800080916900836080936900E89A10E4109373
:100B90007C0080917A00806480937A0080917A0052
:100BA00086FDFCCFC091780080917900D0E0D82BF1
:100BB000C11522E0D2071CF48FEF9FEF02C081E045
:100BC00090E090934A0180934901D595C79521E023
:100BD00030E0019711F020E030E0C21BD30BCF5F73
:100BE000D109D0934C01C0934B01BE010D2E000CD6
:100BF000880B990B0E9483086B017C012AE43BE778
:100C00004BE050E4609143017091440180914501B3
:100C1000909146010E9438099B01AC01C701B601C1
:100C20000E94670760933F017093400180934101E8
:100C30009093420180903B0190903C01A0903D0137
:100C4000B0903E0120E434EA4FE15EE30E943809AF
:100C500020E030E0A9010E9468076B017C012EEEC4
:100C60003CE74FEF5FE3C501B4010E9438099B01E7
:100C7000AC01C701B6010E9468076B017C0127EF38
:100C800036E04FE75FE36091370170913801809162
:100C9000390190913A010E9438099B01AC01C701CA
:100CA000B6010E9467070E944B086B017C0180928D
:100CB000370190923801A0923901B0923A01072E83
:100CC000000C880B990B0E94830860933B01709382
:100CD0003C0180933D0190933E01C6018F3F9105F9
:100CE00019F014F08FEF90E081302FEF920714F499
:100CF00081E09FEF9093480180934701CE010E94CD
:100D00009E032AE43BE74BE050E46091430170917D
:100D1000440180914501909146010E9438096B0180
:100D20007C014B015C019B01AC010E94A509882359
:100D300019F087E191E01AC026013701E89477F8AD
:100D40002FEF3FEF4FE75FE7C301B2010E94A50914
:100D500081110FC02FEF3FEF4FE75FE7C301B201F3
:100D60000E94D40718162CF48BE191E00E944B03EB
:100D700074C02FEF3FEF4FE75FE4C701B6010E9459
:100D8000330918161CF48FE191E0F0CF2FEF3FEFFD
:100D90004FE75FECC701B6010E94D40787FDF3CF90
:100DA00020E030E0A901C701B6010E94D40787FF07
:100DB00009C08DE20E948C0046015701B7FAB09439
:100DC000B7F8B0942AE037ED43EA5BE3C501B4011C
:100DD0000E9468074B015C010E9452086B017C0174
:100DE0000E9481089B01AC01C501B4010E94670704
:100DF0004B015C014AE0C701B6010E945D038EE22F
:100E00000E948C0020E030E040E251E4C501B401D2
:100E10000E9438094B015C010E9452086B01E12CD1
:100E2000F12C4AE0C701B6010E945D03C701B6017B
:100E30000E9481089B01AC01C501B4010E946707B3
:100E400020E030E040E251E40E9438090E9452085C
:100E500080E090E04AE00E945D0384E191E00E941E
:100E60004B0380914701909148010E949E0385E1C8
:100E700091E00E944B0384E191E00E944B0360915A
:100E80004B0170914C017093480160934701809130
:100E9000490190914A01019749F489E00E94230297
:100EA00061E087E00E94B70160E00BC07195619539
:100EB000710989E00E94230260E087E00E94B70187
:100EC00061E088E00E94B7010E94840160CE505822
:100ED000BB27AA270E947F070C94F9080E94EB0801
:100EE00038F00E94F20820F039F49F3F19F426F4FC
:100EF0000C94E8080EF4E095E7FB0C94E208E92F67
:100F00000E940A0958F3BA17620773078407950706
:100F100020F079F4A6F50C942C090EF4E0950B2E34
:100F2000BA2FA02D0B01B90190010C01CA01A0013B
:100F30001124FF27591B99F0593F50F4503E68F196
:100F40001A16F040A22F232F342F4427585FF3CFD7
:100F5000469537952795A795F0405395C9F77EF4A8
:100F60001F16BA0B620B730B840BBAF09150A1F0F1
:100F7000FF0FBB1F661F771F881FC2F70EC0BA0F77
:100F8000621F731F841F48F4879577956795B795FF
:100F9000F7959E3F08F0B0CF9395880F08F09927FA
:100FA000EE0F9795879508950E94BE0808F481E09A
:100FB00008950E94ED070C94F9080E94F20858F079
:100FC0000E94EB0840F029F45F3F29F00C94E208FE
:100FD00051110C942D090C94E8080E940A0968F339
:100FE0009923B1F3552391F3951B550BBB27AA27E2
:100FF00062177307840738F09F5F5F4F220F331F1C
:10100000441FAA1FA9F335D00E2E3AF0E0E832D0E3
:1010100091505040E695001CCAF72BD0FE2F29D0E6
:10102000660F771F881FBB1F261737074807AB07B8
:10103000B0E809F0BB0B802DBF01FF2793585F4F2D
:101040003AF09E3F510578F00C94E2080C942D097B
:101050005F3FE4F3983ED4F3869577956795B7950F
:10106000F7959F5FC9F7880F911D9695879597F91A
:101070000895E1E0660F771F881FBB1F6217730793
:101080008407BA0720F0621B730B840BBA0BEE1FA8
:1010900088F7E09508950E9452086894B1110C9465
:1010A0002D0908950E94120988F09F5798F0B92FD2
:1010B0009927B751B0F0E1F0660F771F881F991F8D
:1010C0001AF0BA95C9F714C0B13091F00E942C09FA
:1010D000B1E008950C942C09672F782F8827B85F0A
:1010E00039F0B93FCCF3869577956795B395D9F7E5
:1010F0003EF490958095709561957F4F8F4F9F4FEF
:101100000895E89409C097FB3EF4909580957095FA
:1011100061957F4F8F4F9F4F9923A9F0F92F96E943
:10112000BB279395F695879577956795B795F111B8
:10113000F8CFFAF4BB0F11F460FF1BC06F5F7F4F55
:101140008F4F9F4F16C0882311F096E911C0772367
:1011500021F09EE8872F762F05C0662371F096E870
:10116000862F70E060E02AF09A95660F771F881F3F
:10117000DAF7880F9695879597F90895990F0008E3
:10118000550FAA0BE0E8FEEF16161706E807F90759
:10119000C0F012161306E407F50798F0621B730BF4
:1011A000840B950B39F40A2661F0232B242B252B75
:1011B00021F408950A2609F4A140A6958FEF811D18
:1011C000811D089597F99F6780E870E060E00895B9
:1011D0009FEF80EC089500240A941616170618064F
:1011E0000906089500240A9412161306140605062B
:1011F0000895092E0394000C11F4882352F0BB0FBC
:1012000040F4BF2B11F460FF04C06F5F7F4F8F4F1E
:101210009F4F089557FD9058440F551F59F05F3F59
:1012200071F04795880F97FB991F61F09F3F79F008
:1012300087950895121613061406551FF2CF46958A
:10124000F1DF08C0161617061806991FF1CF86950C
:101250007105610508940895E894BB2766277727F0
:10126000CB0197F908950E94BE0808F48FEF089506
:101270000E944B090C94F9080E94EB0838F00E9478
:10128000F20820F0952311F00C94E2080C94E80881
:1012900011240C942D090E940A0970F3959FC1F343
:1012A000950F50E0551F629FF001729FBB27F00D14
:1012B000B11D639FAA27F00DB11DAA1F649F662769
:1012C000B00DA11D661F829F2227B00DA11D621FB8
:1012D000739FB00DA11D621F839FA00D611D221F72
:1012E000749F3327A00D611D231F849F600D211D56
:1012F000822F762F6A2F11249F5750409AF0F1F0D9
:1013000088234AF0EE0FFF1FBB1F661F771F881F41
:1013100091505040A9F79E3F510580F00C94E2088F
:101320000C942D095F3FE4F3983ED4F386957795AE
:101330006795B795F795E7959F5FC1F7FE2B880FE7
:10134000911D9695879597F908950E94BE08880B80
:10135000990B0895A1E21A2EAA1BBB1BFD010DC01B
:10136000AA1FBB1FEE1FFF1FA217B307E407F50755
:1013700020F0A21BB30BE40BF50B661F771F881F31
:10138000991F1A9469F760957095809590959B01C7
:10139000AC01BD01CF010895EE0FFF1F0590F49140
:1013A000E02D099481E090E0F8940C94D709F8942A
:0213B000FFCF6D
:1013B20082028202000000001B019700E400C200CA
:1013C200D60062010D0A006E616E00696E66006FE2
:0413D200766600003B
:00000001FF
